{
  "_format": "hh-sol-artifact-1",
  "contractName": "LidoOracle",
  "sourceName": "contracts/0.4.24/oracle/LidoOracle.sol",
  "abi": [
    {
      "constant": true,
      "inputs": [],
      "name": "getCurrentOraclesReportStatus",
      "outputs": [
        {
          "name": "",
          "type": "uint256"
        }
      ],
      "payable": false,
      "stateMutability": "view",
      "type": "function"
    },
    {
      "constant": false,
      "inputs": [
        {
          "name": "_value",
          "type": "uint256"
        }
      ],
      "name": "setAllowedBeaconBalanceAnnualRelativeIncrease",
      "outputs": [],
      "payable": false,
      "stateMutability": "nonpayable",
      "type": "function"
    },
    {
      "constant": true,
      "inputs": [],
      "name": "hasInitialized",
      "outputs": [
        {
          "name": "",
          "type": "bool"
        }
      ],
      "payable": false,
      "stateMutability": "view",
      "type": "function"
    },
    {
      "constant": true,
      "inputs": [],
      "name": "getVersion",
      "outputs": [
        {
          "name": "",
          "type": "uint256"
        }
      ],
      "payable": false,
      "stateMutability": "view",
      "type": "function"
    },
    {
      "constant": true,
      "inputs": [
        {
          "name": "_script",
          "type": "bytes"
        }
      ],
      "name": "getEVMScriptExecutor",
      "outputs": [
        {
          "name": "",
          "type": "address"
        }
      ],
      "payable": false,
      "stateMutability": "view",
      "type": "function"
    },
    {
      "constant": true,
      "inputs": [],
      "name": "MANAGE_QUORUM",
      "outputs": [
        {
          "name": "",
          "type": "bytes32"
        }
      ],
      "payable": false,
      "stateMutability": "view",
      "type": "function"
    },
    {
      "constant": false,
      "inputs": [
        {
          "name": "_epochId",
          "type": "uint256"
        },
        {
          "name": "_beaconBalance",
          "type": "uint64"
        },
        {
          "name": "_beaconValidators",
          "type": "uint32"
        }
      ],
      "name": "reportBeacon",
      "outputs": [],
      "payable": false,
      "stateMutability": "nonpayable",
      "type": "function"
    },
    {
      "constant": true,
      "inputs": [],
      "name": "getRecoveryVault",
      "outputs": [
        {
          "name": "",
          "type": "address"
        }
      ],
      "payable": false,
      "stateMutability": "view",
      "type": "function"
    },
    {
      "constant": true,
      "inputs": [],
      "name": "getAllowedBeaconBalanceAnnualRelativeIncrease",
      "outputs": [
        {
          "name": "",
          "type": "uint256"
        }
      ],
      "payable": false,
      "stateMutability": "view",
      "type": "function"
    },
    {
      "constant": true,
      "inputs": [],
      "name": "getAllowedBeaconBalanceRelativeDecrease",
      "outputs": [
        {
          "name": "",
          "type": "uint256"
        }
      ],
      "payable": false,
      "stateMutability": "view",
      "type": "function"
    },
    {
      "constant": true,
      "inputs": [],
      "name": "getExpectedEpochId",
      "outputs": [
        {
          "name": "",
          "type": "uint256"
        }
      ],
      "payable": false,
      "stateMutability": "view",
      "type": "function"
    },
    {
      "constant": true,
      "inputs": [],
      "name": "getLastCompletedReportDelta",
      "outputs": [
        {
          "name": "postTotalPooledEther",
          "type": "uint256"
        },
        {
          "name": "preTotalPooledEther",
          "type": "uint256"
        },
        {
          "name": "timeElapsed",
          "type": "uint256"
        }
      ],
      "payable": false,
      "stateMutability": "view",
      "type": "function"
    },
    {
      "constant": true,
      "inputs": [],
      "name": "getLido",
      "outputs": [
        {
          "name": "",
          "type": "address"
        }
      ],
      "payable": false,
      "stateMutability": "view",
      "type": "function"
    },
    {
      "constant": true,
      "inputs": [],
      "name": "SET_BEACON_REPORT_RECEIVER",
      "outputs": [
        {
          "name": "",
          "type": "bytes32"
        }
      ],
      "payable": false,
      "stateMutability": "view",
      "type": "function"
    },
    {
      "constant": true,
      "inputs": [],
      "name": "MANAGE_MEMBERS",
      "outputs": [
        {
          "name": "",
          "type": "bytes32"
        }
      ],
      "payable": false,
      "stateMutability": "view",
      "type": "function"
    },
    {
      "constant": true,
      "inputs": [],
      "name": "getCurrentFrame",
      "outputs": [
        {
          "name": "frameEpochId",
          "type": "uint256"
        },
        {
          "name": "frameStartTime",
          "type": "uint256"
        },
        {
          "name": "frameEndTime",
          "type": "uint256"
        }
      ],
      "payable": false,
      "stateMutability": "view",
      "type": "function"
    },
    {
      "constant": true,
      "inputs": [
        {
          "name": "token",
          "type": "address"
        }
      ],
      "name": "allowRecoverability",
      "outputs": [
        {
          "name": "",
          "type": "bool"
        }
      ],
      "payable": false,
      "stateMutability": "view",
      "type": "function"
    },
    {
      "constant": true,
      "inputs": [
        {
          "name": "_index",
          "type": "uint256"
        }
      ],
      "name": "getCurrentReportVariant",
      "outputs": [
        {
          "name": "beaconBalance",
          "type": "uint64"
        },
        {
          "name": "beaconValidators",
          "type": "uint32"
        },
        {
          "name": "count",
          "type": "uint16"
        }
      ],
      "payable": false,
      "stateMutability": "view",
      "type": "function"
    },
    {
      "constant": true,
      "inputs": [],
      "name": "appId",
      "outputs": [
        {
          "name": "",
          "type": "bytes32"
        }
      ],
      "payable": false,
      "stateMutability": "view",
      "type": "function"
    },
    {
      "constant": true,
      "inputs": [],
      "name": "getInitializationBlock",
      "outputs": [
        {
          "name": "",
          "type": "uint256"
        }
      ],
      "payable": false,
      "stateMutability": "view",
      "type": "function"
    },
    {
      "constant": false,
      "inputs": [
        {
          "name": "_allowedBeaconBalanceAnnualRelativeIncrease",
          "type": "uint256"
        },
        {
          "name": "_allowedBeaconBalanceRelativeDecrease",
          "type": "uint256"
        }
      ],
      "name": "initialize_v2",
      "outputs": [],
      "payable": false,
      "stateMutability": "nonpayable",
      "type": "function"
    },
    {
      "constant": false,
      "inputs": [
        {
          "name": "_addr",
          "type": "address"
        }
      ],
      "name": "setBeaconReportReceiver",
      "outputs": [],
      "payable": false,
      "stateMutability": "nonpayable",
      "type": "function"
    },
    {
      "constant": false,
      "inputs": [
        {
          "name": "_token",
          "type": "address"
        }
      ],
      "name": "transferToVault",
      "outputs": [],
      "payable": false,
      "stateMutability": "nonpayable",
      "type": "function"
    },
    {
      "constant": true,
      "inputs": [],
      "name": "SET_BEACON_SPEC",
      "outputs": [
        {
          "name": "",
          "type": "bytes32"
        }
      ],
      "payable": false,
      "stateMutability": "view",
      "type": "function"
    },
    {
      "constant": true,
      "inputs": [
        {
          "name": "_sender",
          "type": "address"
        },
        {
          "name": "_role",
          "type": "bytes32"
        },
        {
          "name": "_params",
          "type": "uint256[]"
        }
      ],
      "name": "canPerform",
      "outputs": [
        {
          "name": "",
          "type": "bool"
        }
      ],
      "payable": false,
      "stateMutability": "view",
      "type": "function"
    },
    {
      "constant": true,
      "inputs": [],
      "name": "getCurrentEpochId",
      "outputs": [
        {
          "name": "",
          "type": "uint256"
        }
      ],
      "payable": false,
      "stateMutability": "view",
      "type": "function"
    },
    {
      "constant": true,
      "inputs": [],
      "name": "getEVMScriptRegistry",
      "outputs": [
        {
          "name": "",
          "type": "address"
        }
      ],
      "payable": false,
      "stateMutability": "view",
      "type": "function"
    },
    {
      "constant": false,
      "inputs": [
        {
          "name": "_member",
          "type": "address"
        }
      ],
      "name": "addOracleMember",
      "outputs": [],
      "payable": false,
      "stateMutability": "nonpayable",
      "type": "function"
    },
    {
      "constant": true,
      "inputs": [],
      "name": "getBeaconReportReceiver",
      "outputs": [
        {
          "name": "",
          "type": "address"
        }
      ],
      "payable": false,
      "stateMutability": "view",
      "type": "function"
    },
    {
      "constant": true,
      "inputs": [],
      "name": "SET_REPORT_BOUNDARIES",
      "outputs": [
        {
          "name": "",
          "type": "bytes32"
        }
      ],
      "payable": false,
      "stateMutability": "view",
      "type": "function"
    },
    {
      "constant": false,
      "inputs": [
        {
          "name": "_quorum",
          "type": "uint256"
        }
      ],
      "name": "setQuorum",
      "outputs": [],
      "payable": false,
      "stateMutability": "nonpayable",
      "type": "function"
    },
    {
      "constant": true,
      "inputs": [],
      "name": "getQuorum",
      "outputs": [
        {
          "name": "",
          "type": "uint256"
        }
      ],
      "payable": false,
      "stateMutability": "view",
      "type": "function"
    },
    {
      "constant": true,
      "inputs": [],
      "name": "kernel",
      "outputs": [
        {
          "name": "",
          "type": "address"
        }
      ],
      "payable": false,
      "stateMutability": "view",
      "type": "function"
    },
    {
      "constant": true,
      "inputs": [],
      "name": "getOracleMembers",
      "outputs": [
        {
          "name": "",
          "type": "address[]"
        }
      ],
      "payable": false,
      "stateMutability": "view",
      "type": "function"
    },
    {
      "constant": true,
      "inputs": [],
      "name": "isPetrified",
      "outputs": [
        {
          "name": "",
          "type": "bool"
        }
      ],
      "payable": false,
      "stateMutability": "view",
      "type": "function"
    },
    {
      "constant": false,
      "inputs": [
        {
          "name": "_value",
          "type": "uint256"
        }
      ],
      "name": "setAllowedBeaconBalanceRelativeDecrease",
      "outputs": [],
      "payable": false,
      "stateMutability": "nonpayable",
      "type": "function"
    },
    {
      "constant": true,
      "inputs": [],
      "name": "getBeaconSpec",
      "outputs": [
        {
          "name": "epochsPerFrame",
          "type": "uint64"
        },
        {
          "name": "slotsPerEpoch",
          "type": "uint64"
        },
        {
          "name": "secondsPerSlot",
          "type": "uint64"
        },
        {
          "name": "genesisTime",
          "type": "uint64"
        }
      ],
      "payable": false,
      "stateMutability": "view",
      "type": "function"
    },
    {
      "constant": false,
      "inputs": [
        {
          "name": "_epochsPerFrame",
          "type": "uint64"
        },
        {
          "name": "_slotsPerEpoch",
          "type": "uint64"
        },
        {
          "name": "_secondsPerSlot",
          "type": "uint64"
        },
        {
          "name": "_genesisTime",
          "type": "uint64"
        }
      ],
      "name": "setBeaconSpec",
      "outputs": [],
      "payable": false,
      "stateMutability": "nonpayable",
      "type": "function"
    },
    {
      "constant": true,
      "inputs": [],
      "name": "MAX_MEMBERS",
      "outputs": [
        {
          "name": "",
          "type": "uint256"
        }
      ],
      "payable": false,
      "stateMutability": "view",
      "type": "function"
    },
    {
      "constant": true,
      "inputs": [],
      "name": "getCurrentReportVariantsSize",
      "outputs": [
        {
          "name": "",
          "type": "uint256"
        }
      ],
      "payable": false,
      "stateMutability": "view",
      "type": "function"
    },
    {
      "constant": false,
      "inputs": [
        {
          "name": "_member",
          "type": "address"
        }
      ],
      "name": "removeOracleMember",
      "outputs": [],
      "payable": false,
      "stateMutability": "nonpayable",
      "type": "function"
    },
    {
      "anonymous": false,
      "inputs": [
        {
          "indexed": true,
          "name": "executor",
          "type": "address"
        },
        {
          "indexed": false,
          "name": "script",
          "type": "bytes"
        },
        {
          "indexed": false,
          "name": "input",
          "type": "bytes"
        },
        {
          "indexed": false,
          "name": "returnData",
          "type": "bytes"
        }
      ],
      "name": "ScriptResult",
      "type": "event"
    },
    {
      "anonymous": false,
      "inputs": [
        {
          "indexed": true,
          "name": "vault",
          "type": "address"
        },
        {
          "indexed": true,
          "name": "token",
          "type": "address"
        },
        {
          "indexed": false,
          "name": "amount",
          "type": "uint256"
        }
      ],
      "name": "RecoverToVault",
      "type": "event"
    },
    {
      "anonymous": false,
      "inputs": [
        {
          "indexed": false,
          "name": "value",
          "type": "uint256"
        }
      ],
      "name": "AllowedBeaconBalanceAnnualRelativeIncreaseSet",
      "type": "event"
    },
    {
      "anonymous": false,
      "inputs": [
        {
          "indexed": false,
          "name": "value",
          "type": "uint256"
        }
      ],
      "name": "AllowedBeaconBalanceRelativeDecreaseSet",
      "type": "event"
    },
    {
      "anonymous": false,
      "inputs": [
        {
          "indexed": false,
          "name": "callback",
          "type": "address"
        }
      ],
      "name": "BeaconReportReceiverSet",
      "type": "event"
    },
    {
      "anonymous": false,
      "inputs": [
        {
          "indexed": false,
          "name": "member",
          "type": "address"
        }
      ],
      "name": "MemberAdded",
      "type": "event"
    },
    {
      "anonymous": false,
      "inputs": [
        {
          "indexed": false,
          "name": "member",
          "type": "address"
        }
      ],
      "name": "MemberRemoved",
      "type": "event"
    },
    {
      "anonymous": false,
      "inputs": [
        {
          "indexed": false,
          "name": "quorum",
          "type": "uint256"
        }
      ],
      "name": "QuorumChanged",
      "type": "event"
    },
    {
      "anonymous": false,
      "inputs": [
        {
          "indexed": false,
          "name": "epochId",
          "type": "uint256"
        }
      ],
      "name": "ExpectedEpochIdUpdated",
      "type": "event"
    },
    {
      "anonymous": false,
      "inputs": [
        {
          "indexed": false,
          "name": "epochsPerFrame",
          "type": "uint64"
        },
        {
          "indexed": false,
          "name": "slotsPerEpoch",
          "type": "uint64"
        },
        {
          "indexed": false,
          "name": "secondsPerSlot",
          "type": "uint64"
        },
        {
          "indexed": false,
          "name": "genesisTime",
          "type": "uint64"
        }
      ],
      "name": "BeaconSpecSet",
      "type": "event"
    },
    {
      "anonymous": false,
      "inputs": [
        {
          "indexed": false,
          "name": "epochId",
          "type": "uint256"
        },
        {
          "indexed": false,
          "name": "beaconBalance",
          "type": "uint128"
        },
        {
          "indexed": false,
          "name": "beaconValidators",
          "type": "uint128"
        },
        {
          "indexed": false,
          "name": "caller",
          "type": "address"
        }
      ],
      "name": "BeaconReported",
      "type": "event"
    },
    {
      "anonymous": false,
      "inputs": [
        {
          "indexed": false,
          "name": "epochId",
          "type": "uint256"
        },
        {
          "indexed": false,
          "name": "beaconBalance",
          "type": "uint128"
        },
        {
          "indexed": false,
          "name": "beaconValidators",
          "type": "uint128"
        }
      ],
      "name": "Completed",
      "type": "event"
    },
    {
      "anonymous": false,
      "inputs": [
        {
          "indexed": false,
          "name": "postTotalPooledEther",
          "type": "uint256"
        },
        {
          "indexed": false,
          "name": "preTotalPooledEther",
          "type": "uint256"
        },
        {
          "indexed": false,
          "name": "timeElapsed",
          "type": "uint256"
        },
        {
          "indexed": false,
          "name": "totalShares",
          "type": "uint256"
        }
      ],
      "name": "PostTotalShares",
      "type": "event"
    },
    {
      "anonymous": false,
      "inputs": [
        {
          "indexed": false,
          "name": "version",
          "type": "uint256"
        }
      ],
      "name": "ContractVersionSet",
      "type": "event"
    }
  ],
  "bytecode": "0x6080604052620000146200001a60201b60201c565b62000231565b6200002a6200011c60201b60201c565b60408051808201909152601881527f494e49545f414c52454144595f494e495449414c495a454400000000000000006020820152901562000106576040517f08c379a00000000000000000000000000000000000000000000000000000000081526004018080602001828103825283818151815260200191508051906020019080838360005b83811015620000ca578181015183820152602001620000b0565b50505050905090810190601f168015620000f85780820380516001836020036101000a031916815260200191505b509250505060405180910390fd5b506200011a6000196200014f60201b60201c565b565b60006200014a600080516020620039f483398151915260001b600019166200022960201b620026661760201c565b905090565b6200015f6200011c60201b60201c565b60408051808201909152601881527f494e49545f414c52454144595f494e495449414c495a4544000000000000000060208201529015620001fe576040517f08c379a000000000000000000000000000000000000000000000000000000000815260040180806020018281038252838181518152602001915080519060200190808383600083811015620000ca578181015183820152602001620000b0565b5062000226600080516020620039f4833981519152826200022d602090811b6200266a17901c565b50565b5490565b9055565b6137b380620002416000396000f3006080604052600436106101dc5760003560e01c63ffffffff16806303cda963146101e15780630719d531146102085780630803fac0146102225780630d8e6e2c1461024b5780632914b9bd146102605780632fa689bb146102d557806331f208b3146102ea57806332f0a3b51461031857806343125b021461032d57806343d21789146103425780634b47b74f14610357578063534649c41461036c5780636a516b471461039f5780636b788573146103b45780636e93beb8146103c957806372f79b13146103de5780637e7db6e1146103f35780637ffb14721461041457806380afdea81461045e5780638b3dd7491461047357806394726554146104885780639a3cb2ca146104a35780639d4941d8146104c4578063a01f0486146104e5578063a1658fad146104fa578063a29a839f14610561578063a479e50814610576578063b164e4371461058b578063b2480603146105ac578063b97d5596146105c1578063c1ba4e59146105d6578063c26c12eb146105ee578063d4aae0c414610603578063dabb575714610618578063de4796ed1461067d578063de50700f14610692578063e547c77c146106aa578063e90b2da1146106f4578063ea0e35b114610728578063ed9767d91461073d578063f98fae8114610752575b600080fd5b3480156101ed57600080fd5b506101f6610773565b60408051918252519081900360200190f35b34801561021457600080fd5b506102206004356107a5565b005b34801561022e57600080fd5b50610237610932565b604080519115158252519081900360200190f35b34801561025757600080fd5b506101f661095c565b34801561026c57600080fd5b506040805160206004803580820135601f81018490048402850184019095528484526102b994369492936024939284019190819084018382808284375094975061099a9650505050505050565b60408051600160a060020a039092168252519081900360200190f35b3480156102e157600080fd5b506101f6610a7d565b3480156102f657600080fd5b5061022060043567ffffffffffffffff6024351663ffffffff60443516610ab2565b34801561032457600080fd5b506102b9610e8e565b34801561033957600080fd5b506101f6610f03565b34801561034e57600080fd5b506101f6610f55565b34801561036357600080fd5b506101f6610fa7565b34801561037857600080fd5b50610381610fd3565b60408051938452602084019290925282820152519081900360600190f35b3480156103ab57600080fd5b506102b96110e4565b3480156103c057600080fd5b506101f6611122565b3480156103d557600080fd5b506101f6611157565b3480156103ea57600080fd5b5061038161118c565b3480156103ff57600080fd5b50610237600160a060020a0360043516611216565b34801561042057600080fd5b5061042c60043561121c565b6040805167ffffffffffffffff909416845263ffffffff909216602084015261ffff1682820152519081900360600190f35b34801561046a57600080fd5b506101f6611250565b34801561047f57600080fd5b506101f661127b565b34801561049457600080fd5b506102206004356024356112a6565b3480156104af57600080fd5b50610220600160a060020a036004351661153d565b3480156104d057600080fd5b50610220600160a060020a03600435166116b0565b3480156104f157600080fd5b506101f661193f565b34801561050657600080fd5b506040805160206004604435818101358381028086018501909652808552610237958335600160a060020a03169560248035963696956064959394920192918291850190849080828437509497506119749650505050505050565b34801561056d57600080fd5b506101f6611ac1565b34801561058257600080fd5b506102b9611ade565b34801561059757600080fd5b50610220600160a060020a0360043516611b93565b3480156105b857600080fd5b506102b9611e04565b3480156105cd57600080fd5b506101f6611e68565b3480156105e257600080fd5b50610220600435611e9d565b3480156105fa57600080fd5b506101f66120f5565b34801561060f57600080fd5b506102b9612133565b34801561062457600080fd5b5061062d61215e565b60408051602080825283518183015283519192839290830191858101910280838360005b83811015610669578181015183820152602001610651565b505050509050019250505060405180910390f35b34801561068957600080fd5b506102376121c0565b34801561069e57600080fd5b506102206004356121d3565b3480156106b657600080fd5b506106bf612322565b6040805167ffffffffffffffff9586168152938516602085015291841683830152909216606082015290519081900360800190f35b34801561070057600080fd5b5061022067ffffffffffffffff60043581169060243581169060443581169060643516612359565b34801561073457600080fd5b506101f661242e565b34801561074957600080fd5b506101f6612434565b34801561075e57600080fd5b50610220600160a060020a036004351661243a565b604080516000805160206137688339815191528152905190819003601e01902060009061079f90612666565b90505b90565b604080517f5345545f5245504f52545f424f554e444152494553000000000000000000000081528151908190036015018120600080835260208301909352916107f49133918491905b50611974565b60408051808201909152600f815260008051602061370883398151915260208201529015156108a45760405160e560020a62461bcd0281526004018080602001828103825283818151815260200191508051906020019080838360005b83811015610869578181015183820152602001610851565b50505050905090810190601f1680156108965780820380516001836020036101000a031916815260200191505b509250505060405180910390fd5b506040805160008051602061374883398151915281527f616e6365416e6e75616c52656c6174697665496e6372656173650000000000006020820152905190819003603a0190206108fb908363ffffffff61266a16565b6040805183815290517f15befe448b41dd28cf3e1b9db42dbb489e7bd480093345e3dbb132ab2993b5379181900360200190a15050565b60008061093d61127b565b9050801580159061095557508061095261266e565b10155b91505b5090565b604080517f6c69646f2e4c69646f4f7261636c652e636f6e747261637456657273696f6e008152905190819003601f01902060009061079f90612666565b60006109a4611ade565b600160a060020a03166304bf2a7f836040518263ffffffff1660e01b81526004018080602001828103825283818151815260200191508051906020019080838360005b838110156109ff5781810151838201526020016109e7565b50505050905090810190601f168015610a2c5780820380516001836020036101000a031916815260200191505b5092505050602060405180830381600087803b158015610a4b57600080fd5b505af1158015610a5f573d6000803e3d6000fd5b505050506040513d6020811015610a7557600080fd5b505192915050565b604080517f4d414e4147455f51554f52554d000000000000000000000000000000000000008152905190819003600d01902081565b610aba61367c565b600080600080600080600080610ace612672565b604080516000805160206137288339815191528152905190819003601f019020909950610afa90612666565b9750878c1015610b54576040805160e560020a62461bcd02815260206004820152601060248201527f45504f43485f49535f544f4f5f4f4c4400000000000000000000000000000000604482015290519081900360640190fd5b878c1115610bc457610b65896126eb565b8c14610bbb576040805160e560020a62461bcd02815260206004820152601060248201527f554e45585045435445445f45504f434800000000000000000000000000000000604482015290519081900360640190fd5b610bc48c612715565b604080518d81526fffffffffffffffffffffffffffffffff633b9aca0067ffffffffffffffff8f1602908116602083015263ffffffff8d168284015233606083015291519198507f23285eb039d2d2881abbf7503a6d39ac5d3113701031b3e69abcb1d2cc24266f919081900360800190a1610c3f336127b8565b9550600019861415610c9b576040805160e560020a62461bcd02815260206004820152601060248201527f4d454d4245525f4e4f545f464f554e4400000000000000000000000000000000604482015290519081900360640190fd5b604080516000805160206137688339815191528152905190819003601e019020610cc490612666565b94506001861b935083851615610d24576040805160e560020a62461bcd02815260206004820152601160248201527f414c52454144595f5355424d4954544544000000000000000000000000000000604482015290519081900360640190fd5b604080516000805160206137688339815191528152905190819003601e019020610d569086861763ffffffff61266a16565b610d608b8b612817565b9250610d6a6120f5565b9150600090505b60015481108015610da95750610da983600183815481101515610d9057fe5b906000526020600020015461283490919063ffffffff16565b15610db657600101610d71565b600154811015610e2e5781610de3600183815481101515610dd357fe5b90600052602060002001546107a2565b60010161ffff16101515610e0857610e038c888c63ffffffff168c61284c565b610e29565b6001805482908110610e1657fe5b6000918252602090912001805460010190555b610e80565b8160011415610e4957610e298c888c63ffffffff168c61284c565b60018054808201825560008290529084017fb10e2d527612073b26eecdfd717e6a320cf44b4afac2b0732d9fcbe2b7fa0cf6909101555b505050505050505050505050565b6000610e98612133565b600160a060020a03166332f0a3b56040518163ffffffff1660e01b8152600401602060405180830381600087803b158015610ed257600080fd5b505af1158015610ee6573d6000803e3d6000fd5b505050506040513d6020811015610efc57600080fd5b5051905090565b6040805160008051602061374883398151915281527f616e6365416e6e75616c52656c6174697665496e6372656173650000000000006020820152905190819003603a01902060009061079f90612666565b6040805160008051602061374883398151915281527f616e6365446563726561736500000000000000000000000000000000000000006020820152905190819003602c01902060009061079f90612666565b604080516000805160206137288339815191528152905190819003601f01902060009061079f90612666565b604080517f6c69646f2e4c69646f4f7261636c652e706f7374436f6d706c65746564546f7481527f616c506f6f6c65644574686572000000000000000000000000000000000000006020820152905190819003602d0190206000908190819061103b90612666565b604080517f6c69646f2e4c69646f4f7261636c652e707265436f6d706c65746564546f746181527f6c506f6f6c6564457468657200000000000000000000000000000000000000006020820152905190819003602c01902090935061109f90612666565b604080517f6c69646f2e4c69646f4f7261636c652e74696d65456c617073656400000000008152905190819003601b0190209092506110dd90612666565b9050909192565b604080517f6c69646f2e4c69646f4f7261636c652e6c69646f0000000000000000000000008152905190819003601401902060009061079f90612666565b604080517f5345545f424541434f4e5f5245504f52545f52454345495645520000000000008152905190819003601a01902081565b604080517f4d414e4147455f4d454d424552530000000000000000000000000000000000008152905190819003600e01902081565b600080600061119961367c565b6000806111a4612672565b925082606001519150826020015183604001510290506111c3836126eb565b95508167ffffffffffffffff168167ffffffffffffffff16870201945060018267ffffffffffffffff168267ffffffffffffffff16856000015167ffffffffffffffff1689010201039350505050909192565b50600190565b600080600061124360018581548110151561123357fe5b9060005260206000200154612de6565b9250925092509193909250565b600061079f7fd625496217aa6a3453eecb9c3489dc5a53e6c67b444329ea2b2cbc9ff547639b612666565b600061079f7febb05b386a8d34882b8711d156f463690983dc47815980fb82aeeff1aa43579e612666565b604080517f6c69646f2e4c69646f4f7261636c652e636f6e747261637456657273696f6e008152905190819003601f0190206000906112e490612666565b15611339576040805160e560020a62461bcd02815260206004820152601360248201527f414c52454144595f494e495449414c495a454400000000000000000000000000604482015290519081900360640190fd5b604080517f6c69646f2e4c69646f4f7261636c652e636f6e747261637456657273696f6e008152905190819003601f01902061137c90600163ffffffff61266a16565b604080516001815290517ffddcded6b4f4730c226821172046b48372d3cd963c159701ae1b7c3bcac541bb9181900360200190a16113c06113bb612672565b6126eb565b604080516000805160206137288339815191528152905190819003601f0190209091506113f3908263ffffffff61266a16565b6040805182815290517fcdcd275f4d96ed683d684f3610a92beacdebcf1ee4d37e2df526fb9001e1ea639181900360200190a16040805160008051602061374883398151915281527f616e6365416e6e75616c52656c6174697665496e6372656173650000000000006020820152905190819003603a01902061147c908463ffffffff61266a16565b6040805184815290517f15befe448b41dd28cf3e1b9db42dbb489e7bd480093345e3dbb132ab2993b5379181900360200190a16040805160008051602061374883398151915281527f616e6365446563726561736500000000000000000000000000000000000000006020820152905190819003602c019020611505908363ffffffff61266a16565b6040805183815290517f0116349092cceaec6172fcd61b2b801a45663783c9dca24919105b66a62da84a9181900360200190a1505050565b604080517f5345545f424541434f4e5f5245504f52545f52454345495645520000000000008152815190819003601a0181206000808352602083019093529161158a9133918491906107ee565b60408051808201909152600f815260008051602061370883398151915260208201529015156115fe5760405160e560020a62461bcd02815260040180806020018281038252838181518152602001915080519060200190808383600083811015610869578181015183820152602001610851565b50604080517f6c69646f2e4c69646f4f7261636c652e626561636f6e5265706f72745265636581527f69766572000000000000000000000000000000000000000000000000000000006020820152905190819003602401902061167090600160a060020a03841663ffffffff61266a16565b60408051600160a060020a038416815290517f10bdb8bba3913c9e1b7ffbf8759dfcf1c355d9796d58906b147ff0b4c3e314489181900360200190a15050565b60008060006116be84611216565b60408051808201909152601281527f5245434f5645525f444953414c4c4f574544000000000000000000000000000060208201529015156117445760405160e560020a62461bcd02815260040180806020018281038252838181518152602001915080519060200190808383600083811015610869578181015183820152602001610851565b5061174d610e8e565b925061175883612df5565b60408051808201909152601a81527f5245434f5645525f5641554c545f4e4f545f434f4e545241435400000000000060208201529015156117de5760405160e560020a62461bcd02815260040180806020018281038252838181518152602001915080519060200190808383600083811015610869578181015183820152602001610851565b50600160a060020a038416151561182f5760405130319250600160a060020a0384169083156108fc029084906000818181858888f19350505050158015611829573d6000803e3d6000fd5b506118ee565b508261184a600160a060020a0382163063ffffffff612e2216565b9150611866600160a060020a038216848463ffffffff612f3716565b60408051808201909152601d81527f5245434f5645525f544f4b454e5f5452414e534645525f4641494c454400000060208201529015156118ec5760405160e560020a62461bcd02815260040180806020018281038252838181518152602001915080519060200190808383600083811015610869578181015183820152602001610851565b505b83600160a060020a031683600160a060020a03167f596caf56044b55fb8c4ca640089bbc2b63cae3e978b851f5745cbb7c5b288e02846040518082815260200191505060405180910390a350505050565b604080517f5345545f424541434f4e5f5350454300000000000000000000000000000000008152905190819003600f01902081565b60008061197f610932565b151561198e5760009150611ab9565b611996612133565b9050600160a060020a03811615156119b15760009150611ab9565b80600160a060020a031663fdef91068630876119cc88612fc2565b60405163ffffffff861660e01b8152600160a060020a03808616600483019081529085166024830152604482018490526080606483019081528351608484015283519192909160a490910190602085019080838360005b83811015611a3b578181015183820152602001611a23565b50505050905090810190601f168015611a685780820380516001836020036101000a031916815260200191505b5095505050505050602060405180830381600087803b158015611a8a57600080fd5b505af1158015611a9e573d6000803e3d6000fd5b505050506040513d6020811015611ab457600080fd5b505191505b509392505050565b6000611acb61367c565b611ad3612672565b905061095581612fcc565b600080611ae9612133565b604080517fbe00bbd80000000000000000000000000000000000000000000000000000000081527fd6f028ca0e8edb4a8c9757ca4fdccab25fa1e0317da1188108f7d2dee14902fb60048201527fddbcfd564f642ab5627cf68b9b7d374fb4f8a36e941a75d89c87998cef03bd6160248201529051600160a060020a03929092169163be00bbd8916044808201926020929091908290030181600087803b158015610a4b57600080fd5b604080517f4d414e4147455f4d454d424552530000000000000000000000000000000000008152815190819003600e01812060008083526020830190935291611be09133918491906107ee565b60408051808201909152600f81526000805160206137088339815191526020820152901515611c545760405160e560020a62461bcd02815260040180806020018281038252838181518152602001915080519060200190808383600083811015610869578181015183820152602001610851565b50600160a060020a0382161515611cb5576040805160e560020a62461bcd02815260206004820152600c60248201527f4241445f415247554d454e540000000000000000000000000000000000000000604482015290519081900360640190fd5b611cbe826127b8565b60001914611d16576040805160e560020a62461bcd02815260206004820152600d60248201527f4d454d4245525f45584953545300000000000000000000000000000000000000604482015290519081900360640190fd5b600080546001810182558180527f290decd9548b62a8d60345a988386fc84ba6bc95484008f6362f93160ef3e56301805473ffffffffffffffffffffffffffffffffffffffff1916600160a060020a0385161790555461010011611dc4576040805160e560020a62461bcd02815260206004820152601060248201527f544f4f5f4d414e595f4d454d4245525300000000000000000000000000000000604482015290519081900360640190fd5b60408051600160a060020a038416815290517fb251eb052afc73ffd02ffe85ad79990a8b3fed60d76dbc2fa2fdd7123dffd9149181900360200190a15050565b604080517f6c69646f2e4c69646f4f7261636c652e626561636f6e5265706f72745265636581527f69766572000000000000000000000000000000000000000000000000000000006020820152905190819003602401902060009061079f90612666565b604080517f5345545f5245504f52545f424f554e44415249455300000000000000000000008152905190819003601501902081565b604080517f4d414e4147455f51554f52554d000000000000000000000000000000000000008152815190819003600d018120600080835260208301909352829182918291829190611ef29033908390856107ee565b60408051808201909152600f81526000805160206137088339815191526020820152901515611f665760405160e560020a62461bcd02815260040180806020018281038252838181518152602001915080519060200190808383600083811015610869578181015183820152602001610851565b50861515611fbe576040805160e560020a62461bcd02815260206004820152601360248201527f51554f52554d5f574f4e545f42455f4d41444500000000000000000000000000604482015290519081900360640190fd5b604080517f6c69646f2e4c69646f4f7261636c652e71756f72756d0000000000000000000081529051908190036016019020611ff990612666565b604080517f6c69646f2e4c69646f4f7261636c652e71756f72756d000000000000000000008152905190819003601601902090965061203e908863ffffffff61266a16565b6040805188815290517f027863d12a407097e086a48e36475bfc859d0b200b7e6f65b5fd3b218e46632e9181900360200190a1868611156120ec576120828761300b565b9450945084156120ec576120958461311b565b604080516000805160206137288339815191528152905190819003601f01902091945092506120ec906120c790612666565b8467ffffffffffffffff16633b9aca00028463ffffffff166120e7612672565b61284c565b50505050505050565b604080517f6c69646f2e4c69646f4f7261636c652e71756f72756d000000000000000000008152905190819003601601902060009061079f90612666565b600061079f7f4172f0f7d2289153072b0a6ca36959e0cbe2efc3afe50fc81636caa96338137b612666565b606060008054806020026020016040519081016040528092919081815260200182805480156121b657602002820191906000526020600020905b8154600160a060020a03168152600190910190602001808311612198575b5050505050905090565b60006000196121cd61127b565b14905090565b604080517f5345545f5245504f52545f424f554e444152494553000000000000000000000081528151908190036015018120600080835260208301909352916122209133918491906107ee565b60408051808201909152600f815260008051602061370883398151915260208201529015156122945760405160e560020a62461bcd02815260040180806020018281038252838181518152602001915080519060200190808383600083811015610869578181015183820152602001610851565b506040805160008051602061374883398151915281527f616e6365446563726561736500000000000000000000000000000000000000006020820152905190819003602c0190206122eb908363ffffffff61266a16565b6040805183815290517f0116349092cceaec6172fcd61b2b801a45663783c9dca24919105b66a62da84a9181900360200190a15050565b60008060008061233061367c565b612338612672565b80516020820151604083015160609093015191989097509195509350915050565b604080517f5345545f424541434f4e5f5350454300000000000000000000000000000000008152815190819003600f018120600080835260208301909352916123a69133918491906107ee565b60408051808201909152600f8152600080516020613708833981519152602082015290151561241a5760405160e560020a62461bcd02815260040180806020018281038252838181518152602001915080519060200190808383600083811015610869578181015183820152602001610851565b506124278585858561312a565b5050505050565b61010081565b60015490565b604080517f4d414e4147455f4d454d424552530000000000000000000000000000000000008152815190819003600e01812060008083526020830190935282916124889033908390856107ee565b60408051808201909152600f815260008051602061370883398151915260208201529015156124fc5760405160e560020a62461bcd02815260040180806020018281038252838181518152602001915080519060200190808383600083811015610869578181015183820152602001610851565b50612506846127b8565b9250600019831415612562576040805160e560020a62461bcd02815260206004820152601060248201527f4d454d4245525f4e4f545f464f554e4400000000000000000000000000000000604482015290519081900360640190fd5b6000546000190191508282146125d357600080548390811061258057fe5b60009182526020822001548154600160a060020a039091169190859081106125a457fe5b9060005260206000200160006101000a815481600160a060020a030219169083600160a060020a031602179055505b60008054906125e69060001983016136a3565b5060408051600160a060020a038616815290517f6e76fb4c77256006d9c38ec7d82b45a8c8f3c27b1d6766fffc42dfb8de6844929181900360200190a1604080516000805160206137688339815191528152905190819003601e01902061265490600063ffffffff61266a16565b612660600160006136cc565b50505050565b5490565b9055565b4390565b61267a61367c565b604080517f6c69646f2e4c69646f4f7261636c652e626561636f6e537065630000000000008152905190819003601a0190206000906126b890612666565b67ffffffffffffffff60c082901c81168452608082901c81166020850152604082811c8216908501521660608301525090565b805160009067ffffffffffffffff168061270484612fcc565b81151561270d57fe5b040292915050565b604080516000805160206137688339815191528152905190819003601e01902061274690600063ffffffff61266a16565b604080516000805160206137288339815191528152905190819003601f019020612776908263ffffffff61266a16565b612782600160006136cc565b6040805182815290517fcdcd275f4d96ed683d684f3610a92beacdebcf1ee4d37e2df526fb9001e1ea639181900360200190a150565b60008054815b8181101561280a5783600160a060020a03166000828154811015156127df57fe5b600091825260209091200154600160a060020a0316141561280257809250612810565b6001016127be565b60001992505b5050919050565b63ffffffff1660101b67ffffffffffffffff9190911660301b1790565b6dffffffffffffffffffffffff000091909116141590565b604080518581526fffffffffffffffffffffffffffffffff8086166020830152841681830152905160009182918291829182917f95423529aa0b2867e02676b0bb4766cde576fb31ea77056f683bc236c7c15f9d919081900360600190a185516128c19067ffffffffffffffff168a01612715565b6128c96110e4565b945084600160a060020a03166318160ddd6040518163ffffffff1660e01b8152600401602060405180830381600087803b15801561290657600080fd5b505af115801561291a573d6000803e3d6000fd5b505050506040513d602081101561293057600080fd5b5051604080517ff16ac1fc0000000000000000000000000000000000000000000000000000000081526fffffffffffffffffffffffffffffffff808b1660048301528b1660248201529051919550600160a060020a0387169163f16ac1fc9160448082019260009290919082900301818387803b1580156129b057600080fd5b505af11580156129c4573d6000803e3d6000fd5b5050505084600160a060020a03166318160ddd6040518163ffffffff1660e01b8152600401602060405180830381600087803b158015612a0357600080fd5b505af1158015612a17573d6000803e3d6000fd5b505050506040513d6020811015612a2d57600080fd5b5051604080517f6c69646f2e4c69646f4f7261636c652e707265436f6d706c65746564546f746181527f6c506f6f6c6564457468657200000000000000000000000000000000000000006020820152905190819003602c019020909350612a9a908563ffffffff61266a16565b604080517f6c69646f2e4c69646f4f7261636c652e706f7374436f6d706c65746564546f7481527f616c506f6f6c65644574686572000000000000000000000000000000000000006020820152905190819003602d019020612b02908463ffffffff61266a16565b856040015167ffffffffffffffff16866020015167ffffffffffffffff16612b8860405180807f6c69646f2e4c69646f4f7261636c652e6c617374436f6d706c6574656445706f81526020017f63684964000000000000000000000000000000000000000000000000000000008152506024019050604051809103902060001916612666565b604080517f6c69646f2e4c69646f4f7261636c652e74696d65456c617073656400000000008152905190819003601b019020908c0391909102919091029250612bd7908363ffffffff61266a16565b604080517f6c69646f2e4c69646f4f7261636c652e6c617374436f6d706c6574656445706f81527f636849640000000000000000000000000000000000000000000000000000000060208201529051908190036024019020612c3f908a63ffffffff61266a16565b612c4a838584613379565b7fdafd48d1eba2a416b2aca45e9ead3ad18b84e868fa6d2e1a3048bfd37ed10a3283858488600160a060020a031663d5002f2e6040518163ffffffff1660e01b8152600401602060405180830381600087803b158015612ca957600080fd5b505af1158015612cbd573d6000803e3d6000fd5b505050506040513d6020811015612cd357600080fd5b5051604080519485526020850193909352838301919091526060830152519081900360800190a1604080517f6c69646f2e4c69646f4f7261636c652e626561636f6e5265706f72745265636581527f697665720000000000000000000000000000000000000000000000000000000060208201529051908190036024019020612d5b90612666565b9050600160a060020a03811615612ddb5780600160a060020a03166334212e5f8486856040518463ffffffff1660e01b8152600401808481526020018381526020018281526020019350505050600060405180830381600087803b158015612dc257600080fd5b505af1158015612dd6573d6000803e3d6000fd5b505050505b505050505050505050565b603081901c91601082901c9190565b600080600160a060020a0383161515612e115760009150612e1c565b823b90506000811191505b50919050565b60408051600160a060020a0383166024808301919091528251808303909101815260449091019091526020810180517bffffffffffffffffffffffffffffffffffffffffffffffffffffffff167f70a08231000000000000000000000000000000000000000000000000000000001790526000908180612ea286846134ab565b60408051808201909152601c81527f534146455f4552435f32305f42414c414e43455f52455645525445440000000060208201529193509150821515612f2d5760405160e560020a62461bcd02815260040180806020018281038252838181518152602001915080519060200190808383600083811015610869578181015183820152602001610851565b5095945050505050565b60408051600160a060020a038416602482015260448082018490528251808303909101815260649091019091526020810180517bffffffffffffffffffffffffffffffffffffffffffffffffffffffff167fa9059cbb00000000000000000000000000000000000000000000000000000000179052600090612fb985826134dc565b95945050505050565b8051602002815290565b6000816040015182602001510267ffffffffffffffff16826060015167ffffffffffffffff16612ffa61352d565b0381151561300457fe5b0492915050565b600080600080600080600060018054905060011415613062578761303860016000815481101515610dd357fe5b61ffff1610156001600081548110151561304e57fe5b906000526020600020015496509650613111565b60015415156130775760009650869550613111565b5060009350839250829150819050805b6001548110156130e1576130a3600182815481101515610dd357fe5b915061ffff808416908316106130d9578261ffff168261ffff1614156130ce578360010193506130d9565b809450819250600093505b600101613087565b878361ffff16101580156130f3575083155b600180548790811061310157fe5b9060005260206000200154965096505b5050505050915091565b603081901c9160109190911c90565b600067ffffffffffffffff8516811061318d576040805160e560020a62461bcd02815260206004820152601460248201527f4241445f45504f4348535f5045525f4652414d45000000000000000000000000604482015290519081900360640190fd5b600067ffffffffffffffff8516116131ef576040805160e560020a62461bcd02815260206004820152601360248201527f4241445f534c4f54535f5045525f45504f434800000000000000000000000000604482015290519081900360640190fd5b600067ffffffffffffffff841611613251576040805160e560020a62461bcd02815260206004820152601460248201527f4241445f5345434f4e44535f5045525f534c4f54000000000000000000000000604482015290519081900360640190fd5b600067ffffffffffffffff8316116132b3576040805160e560020a62461bcd02815260206004820152601060248201527f4241445f47454e455349535f54494d4500000000000000000000000000000000604482015290519081900360640190fd5b50604080517f6c69646f2e4c69646f4f7261636c652e626561636f6e537065630000000000008152815190819003601a01902067ffffffffffffffff86811660c01b86821660801b1785821690931b92909217918316919091179061331e908263ffffffff61266a16565b6040805167ffffffffffffffff80881682528087166020830152808616828401528416606082015290517fa15de8f88515e04da45ad2303c04e9f126945fd99e173d3d93ff6351e1f335ee9181900360800190a15050505050565b6000808080808087891061342b5787890395506133a488613398610f03565b9063ffffffff61353116565b94506133cc876133c0651cae8c13e0008963ffffffff61353116565b9063ffffffff6135dc16565b935084841115613426576040805160e560020a62461bcd02815260206004820152601f60248201527f414c4c4f5745445f424541434f4e5f42414c414e43455f494e43524541534500604482015290519081900360640190fd5b612ddb565b888803925061343c88613398610f55565b9150613451620f42408463ffffffff61353116565b905081811115612ddb576040805160e560020a62461bcd02815260206004820152601f60248201527f414c4c4f5745445f424541434f4e5f42414c414e43455f444543524541534500604482015290519081900360640190fd5b6000806000806040516020818751602089018a5afa925060008311156134d057805191505b50909590945092505050565b6000806040516020818551602087016000895af16000811115613520573d801561350d57602081146135165761351e565b6001935061351e565b600183511493505b505b50508091505b5092915050565b4290565b6000808315156135445760009150613526565b5082820282848281151561355457fe5b60408051808201909152601181527f4d4154485f4d554c5f4f564552464c4f5700000000000000000000000000000060208201529291900414611ab95760405160e560020a62461bcd02815260040180806020018281038252838181518152602001915080519060200190808383600083811015610869578181015183820152602001610851565b60408051808201909152600d81527f4d4154485f4449565f5a45524f00000000000000000000000000000000000000602082015260009081908184116136675760405160e560020a62461bcd02815260040180806020018281038252838181518152602001915080519060200190808383600083811015610869578181015183820152602001610851565b50828481151561367357fe5b04949350505050565b60408051608081018252600080825260208201819052918101829052606081019190915290565b8154818355818111156136c7576000838152602090206136c79181019083016136ed565b505050565b50805460008255906000526020600020908101906136ea91906136ed565b50565b6107a291905b8082111561095857600081556001016136f356004150505f415554485f4641494c454400000000000000000000000000000000006c69646f2e4c69646f4f7261636c652e657870656374656445706f63684964006c69646f2e4c69646f4f7261636c652e616c6c6f776564426561636f6e42616c6c69646f2e4c69646f4f7261636c652e7265706f7274734269744d61736b0000a165627a7a72305820d57ee704d073ce97bf00ca55e687f04fe7c00950b26501a2986e46371b877c480029ebb05b386a8d34882b8711d156f463690983dc47815980fb82aeeff1aa43579e",
  "linkReferences": {},
  "deployedLinkReferences": {}
}